:020000003BC003
:02000C0004C02E
:1000140000C002B7C298C39A112713BF0E5B68943D
:10002400C39818955527442733271FEF11BBBA9A55
:10003400BB9AC298C39A1BE018B912E019BFC398BF
:1000440008952DEB22BFE89422E023BFC29A0895BD
:1000540010EF1395F1F70895400F08F433955A956E
:1000640041F4F0E0EAE8E30FC89502BA55274427C3
:10007400332708951FED1DBFD5DF7894E9DFE1DF55
:10008400FEF7EADFFBCF00010203040506070809B7
:1000940010111213141516171819202122232425C0
:1000A4002627282930313233343536363737383835
:1000B400383939404040424244444646484850500A
:00000001FF
