:020000002EC010
:02000C0004C02E
:1000140000C002B7C298C39A112713BF0F5C68943B
:10002400C39818955527442733271FEF11BBBA9A55
:10003400BB9AC298C39A12E019BFC39808952EECD4
:1000440022BFE89422E023BFC29A089522271DEF1D
:100054002395F1F71395E1F708951FED1DBFE2DF36
:100064007894F4DFECDFFEF7FCCF00010203040513
:100074000607080910111213141516171819202150
:1000840022232425262728293031323334353637A4
:0E0094003839404142434445464748495000F0
:00000001FF
